:060000000A128A1100291A
:10000800F000030EF1000C1854210B191F218C1855
:0C0018006121710E8300F00E700E0900D3
:100200000B216A2171217E218E219B2103138312F0
:1002100026213B210829031783168801890103132E
:100220008316051086018701880103138312850157
:10023000860187018801A001A101A3010800031321
:100240008312FA3081000B112D21080021080022B1
:10025000A90020080022AA0008000810881026180B
:100260003629290887008814261408002A088700E0
:1002700008142610080003138312A001A10124080A
:10028000A3000A30A302A00A03184129A0030A30E0
:10029000A3074B2108000130A302A10A03184B2930
:1002A000A1030130A3070800031383120B308F0052
:1002B000DC308E000C10A20AA21C0800A201A40AC5
:1002C00008008C10A50AA51C0800A51D0800A501A2
:1002D000850A0800031383160F140F178F160F12C9
:1002E0000800031383168112811101158114011472
:1002F00003138312FA3081000B11080003138312D9
:1003000090109011901610161013101403138312EE
:100310000B308F00DC308E000C10080003138316A6
:10032000F0309200031383129214121412179216D3
:10033000121292111215031383160C148C1403134A
:1003400083128B170B178B160B110C108C100800D7
:100400008A018A140F3982073F3406345B344F3433
:1004100066346D347D3407347F346F3477347C3404
:0804200039345E347934713483
:04400E00D420FF3F7C
:00000001FF
